:100000006CC0000092C0000090C000008EC00000D4
:100010008CC000008AC0000088C0000086C00000BC
:1000200084C000000C94C72680C000000C94BA4124
:100030007CC000007AC0000078C0000076C00000DC
:100040000C94A14372C000000C947C460C94AE4604
:100050006CC000006AC0000068C0000066C00000FC
:1000600064C0000062C0000000000008000201003F
:100070000003040700000000000000000102040863
:100080001020408001020408102001020408102002
:10009000040404040404040402020202020203032E
:1000A00003030303000000002300260029000000D2
:1000B0000000250028002B0000000000240027007D
:1000C0002A00ED00BC26A527D22B252C8B33C63465
:1000D000C63659399A3EE63ED34611241FBECFEFAD
:1000E000D8E0DEBFCDBF12E0A0E0B1E0E6E0F4E989
:1000F00002C005900D92AE38B107D9F727E0AEE8FF
:10010000B2E001C01D92AC3CB207E1F710E0CDE6D1
:10011000D0E004C02197FE010E941349C136D107E7
:10012000C9F70E9425280C94014A6ACFCF92DF922A
:10013000EF92FF920F931F93E82FF92F05C0015004
:1001400011092109310961F1908196239417B9F3BE
:1001500005C0015011092109310911F1908196233F
:100160009413F7CFC12CD12CE12CF12C0AC08FEFC6
:10017000C81AD80AE80AF80A0C151D052E053F050D
:1001800079F080818623841791F36C2D7D2D8E2D3F
:100190009F2D1F910F91FF90EF90DF90CF900895CA
:1001A00060E070E080E090E01F910F91FF90EF9091
:1001B000DF90CF90089570E023E0829FC00111246A
:1001C00082579D4F0C940B4370E023E0829FC00147
:1001D000112482579D4F0C9447438EE892E00C9473
:1001E0007342CF93C62F61E00E94C14460E08C2F20
:1001F000CF910C94C1444F925F926F927F92AF92D5
:10020000BF92CF92DF92EF92FF920F931F93CF9303
:10021000DF935C01162FC42FD22F611104C061E05F
:10022000842F0E94C14460E08C2F0E94FD440E94F4
:10023000F7432B013C010E94F743641975098609B5
:1002400097096630710581059105A8F361E08C2F4F
:100250000E94FD440E94F7432B013C01C02ED12C8B
:10026000F12CE12C0E94F74364197509860997095E
:10027000C616D706E806F906A8F760E08C2F0E949C
:10028000FD44111104C060E08D2F0E94C14420E4A0
:1002900032E44FE050E061E08D2F0E942A45F501E5
:1002A0006083718382839383DF91CF911F910F913C
:1002B000FF90EF90DF90CF90BF90AF907F906F90C6
:1002C0005F904F90089590E080E008950F931F9302
:1002D000009709F489C06115710509F485C0009182
:1002E00004011091050120910601309107010E3F94
:1002F0001F4F2F4F3F4F09F069C0DB014D915D91BA
:100300006D917C9140930401509305016093060127
:10031000709307014091040150910501609106011D
:1003200070910701DC011296ED91FC918081918121
:10033000A281B3818093FB039093FC03A093FD0300
:10034000B093FE0384819581A681B7818093F703E2
:100350009093F803A093F903B093FA0380859185F5
:10036000A285B3858093F3039093F403A093F503E0
:10037000B093F60384859585A685B7858093EF03B2
:100380009093F003A093F103B093F2031092EB0368
:100390001092EC031092ED031092EE030E94DD0A1E
:1003A00082E09BE09093920280939102909394025A
:1003B00080939302E1D7009731F421E030E030934D
:1003C00000042093FF031F910F91089500910401F1
:1003D000109105012091060130910701FB01008376
:1003E00011832283338396CF8FEF9FEFECCF8F92D1
:1003F0009F92AF92BF92CF92DF92EF92FF921F93A4
:10040000CF93DF934B015C011091020482E090E0F6
:10041000909300048093FF0381149104A104B1041C
:1004200041F480910204811104C080910104C1E073
:100430008111C0E0C12CD12C760180910204811180
:1004400006C080910104811102C0CC23D9F083E061
:1004500090E0909300048093FF03CC2379F1CCE9E2
:10046000DFEF111102C00E94670ECE01DF91CF9124
:100470001F91FF90EF90DF90CF90BF90AF909F9033
:100480008F9008956AE070E080E090E00E941C4444
:1004900080E1C80E87E2D81EE11CF11C8FEF8816A0
:1004A0009806A806B80631F0C1E08C149D04AE048D
:1004B000BF0408F0C0E080E0A3D7BFCFD0E0C0E029
:1004C000D0CFCF92DF92EF92FF920F931F93CF93F3
:1004D000DF938F3F910511F008F050C02091FF038A
:1004E000309100042330310539F02091FF03309121
:1004F00000042130310531F424E030E03093000471
:100500002093FF036A017B01EC0182309105A0F08A
:1005100011E0AE01C701B6012ED7AB01BC01CE017F
:100520001123F9F0DF91CF911F910F91FF90EF9080
:10053000DF90CF900C9487108C01000F111F0F5685
:100540001D4FD8018D919C91892B11F30E94911020
:100550000297F1F6D801ED91FC91CE010995182F83
:10056000D8CF0E94A91090E080E0DF91CF911F9139
:100570000F91FF90EF90DF90CF9008958FEF9FEF56
:10058000F4CF80E03DC7CF93DF9386E090E0909377
:1005900000048093FF038DD7EC01E1E9F2E084E0F1
:1005A000DF011D928A95E9F70E94FF0D1092000469
:1005B0001092FF03CE01DF91CF9108958091010445
:1005C00008958091EA0308956093040170930501F2
:1005D000809306019093070190E080E00895CF9208
:1005E000DF92EF92FF926B017C019F7720E030E079
:1005F00040E859E50E941D2987FF2BC020E030E02C
:1006000040E05FE3C701B6010E94522A87FD0EC099
:1006100020E030E040E05FE3C701B6010E94A62879
:10062000FF90EF90DF90CF900C948A2920E030E08B
:1006300040E05FEBC701B6010E94522A181684F40D
:1006400020E030E0A901C701B6010E94562A6B01E3
:100650007C01C701B601FF90EF90DF90CF90089525
:1006600020E030E040E05FE3C701B6010E94A5282A
:10067000FF90EF90DF90CF900C940A29E091360321
:10068000F0913703AEE9B7E058964D915D916D91C9
:100690007C915B97408351836283738354964D9121
:1006A0005D916D917C9157974483558366837783E1
:1006B0001C964D915D916D917C911F97408751875C
:1006C0006287738750968D919D910D90BC91A02D5E
:1006D00084879587A687B78708952F923F924F9278
:1006E0005F926F927F928F929F92AF92BF92CF92C2
:1006F000DF92EF92FF920F931F93CF93DF93CDB7CB
:10070000DEB7AE970FB6F894DEBF0FBECDBF009137
:10071000B9031091BA030130110509F0D0C38091DB
:100720009D0390919E03A0919F03B091A0038090A0
:10073000A5039090A603A090A703B090A803C09033
:10074000A103D090A203E090A303F090A4038F3FF5
:100750002FEF9207A207B20709F08EC3C701B601B7
:100760006F5F7F4F8F4F9F4F0E944D29A5019401CE
:100770000E94562A20E030E040E85FE40E94562ABA
:100780006093B7027093B8028093B9029093BA0253
:10079000C090BA07D090BB07E090BC07F090BD07AF
:1007A000C0929E07D0929F07E092A007F092A10707
:1007B00020E030E0A901C701B6010E941D2987FD94
:1007C00096C320E030E044E353E4C701B6010E9441
:1007D000522A64EB1816DCF0C701B60100DF6B018A
:1007E0007C0120E030E040E853E40E941D296FEFD7
:1007F00087FF0DC020E030E0A901C701B6010E94CB
:10080000522A87FD74C3C701B6010E94212980E0E6
:10081000DBDC0130110509F056C080919907811188
:10082000109299070AE024E045E061E0CE010196CC
:10083000E2DC69817A818B819C810E944D292EEABC
:1008400034ED43EB59E30E94562A20E030E040E0CB
:100850005FE30E94562A9B01AC0160E070E080E2F9
:1008600091E40E94A5286B017C0125E63BEC41E860
:1008700050EC0E94562A6093A2077093A3078093BE
:10088000A4079093A5072CE63BEE46E151ECC70187
:10089000B6010E94562A6093A6077093A70780931B
:1008A000A8079093A9072BE235E042E75EEBC7016A
:1008B000B6010E94562A6093B2077093B3078093E3
:1008C000B4079093B5072091C2073091C3074091B8
:1008D000C4075091C5076091A6077091A707809142
:1008E000A8079091A9070E94A52824EF31EF42E6BE
:1008F00054E40E94562A6B017C01C092AA07D09250
:10090000AB07E092AC07F092AD072091BE073091A3
:10091000BF074091C0075091C1076091A207709135
:10092000A3078091A4079091A5070E94A628A7017C
:1009300096010E94A6282AE530E04EE250EC0E9483
:10094000562A6093AE077093AF078093B0079093D9
:10095000B1078091C6079091C707A091C807B091D1
:10096000C9078093B6079093B707A093B807B093D1
:10097000B9078091B9039091BA03019771F560911D
:10098000AD037091AE038091AF039091B0030E94CC
:100990004D2920E030E040E85FE40E94562A6B01D8
:1009A0007C016091A9037091AA038091AB0390919F
:1009B000AC030E944D299B01AC01C701B6010E9406
:1009C000A62820E030E0A9010E94A6280E94212943
:1009D000AB01BC0181E090E074DD8091B90390919E
:1009E000BA03019709F02FC2E091E702F091E80203
:1009F0000190F081E02D80819181A281B3818F8B64
:100A0000988FA98FBA8F8091B7029091B802A09168
:100A1000B902B091BA028BA39CA3ADA3BEA3E0918F
:100A2000BB02F091BC0280809180A280B380E091F3
:100A3000EB02F091EC0270806180E091AF02F091E6
:100A4000B0022080318052804380148105819681DC
:100A500099A3A781AAA3E091AD02F091AE02118201
:100A6000108280E1E72DF62DD10101900D928A953B
:100A7000E1F7E091E502F091E60250824182FEDD6D
:100A800020E030E040E05FE3C501B4010E94562A57
:100A90006B017C013C8E2B8E5D8A4E8A7B8A6C8A30
:100AA000F1017096FE8FED8F7D826E825F824886A7
:100AB0003C862B86EB85FC8581919191A191B1912A
:100AC000FC87EB878F87988BA98BBA8BAF81B88512
:100AD0002D913D914D915D91B887AF83C701B601CE
:100AE0000E94562A2F85388949895A890E94A6284A
:100AF000ED81FE816193719381939193FE83ED83E8
:100B00002D8D3E8D8B859C852817390799F6E091B0
:100B1000E702F091E802A081B181BE83AD83A70115
:100B200096016F89788D898D9A8D0E94A628ED8116
:100B3000FE816083718382839383E091E502F0916B
:100B4000E60210830183C9DD99DD20E030E0A901D0
:100B5000C501B4010E94562A6FA378A789A79AA756
:100B600020E030E040E45FE3C501B4010E94562A72
:100B70006B017C011D830E83072D162D2D813E8177
:100B8000388B2F875F824886F10181919191A191E5
:100B9000B1911F018D8F9E8FAF8FB8A3AF81B885A4
:100BA0006D917D918D919D91B887AF83EF85F88987
:100BB0004190519061907190F88BEF872FA138A5EB
:100BC00049A55AA50E94562A6BA77CA78DA79EA768
:100BD000A7019601C301B2010E94562A9B01AC01F4
:100BE0006BA57CA58DA59EA50E94A6282D8D3E8D6A
:100BF0004F8D58A10E94A628D8016D937D938D93A7
:100C00009D938D01EB85FC85E215F30509F0BCCFC2
:100C1000E091E702F091E80200811181A7019601BD
:100C20006F89788D898D9A8D0E94A628D8016D9341
:100C30007D938D939C931397E091E502F091E602EA
:100C4000B9A1B0832AA1218348DD18DD29E33EE85C
:100C500043E65EE3C501B4010E94562A6B877C8798
:100C60008D879E872BEA3AEA4AEA5EE3C501B40122
:100C70000E94562A6F8B788F898F9A8F29E33EE8DE
:100C800043EE5EE3C501B4010E94562A6F87788B5C
:100C9000898B9A8B09A11AA1EB8DFC8D8191919181
:100CA000A191B191FC8FEB8F8F839887A987BA8729
:100CB000AD89BE896D917D918D919D91BE8BAD8BDE
:100CC000ED81FE814190519061907190FE83ED83A2
:100CD000D801CD90DD90ED90FD908D012B853C8568
:100CE0004D855E850E94562A4B015C012F89388D07
:100CF000498D5A8DC301B2010E94562A9B01AC0155
:100D0000C501B4010E94A6284B015C012F853889DA
:100D100049895A89C701B6010E94562A9B01AC0134
:100D2000C501B4010E94A6282F81388549855A85BE
:100D30000E94A628EB89FC8961937193819391931A
:100D4000FC8BEB8B2B8D3C8D2216330609F0A4CF48
:100D5000E091E702F091E8020190F081E02D8BA193
:100D60009CA1ADA1BEA180839183A283B383E091B6
:100D7000AD02F091AE0281E090E09183808380919A
:100D80009D0390919E03A0919F03B091A0030196B3
:100D9000A11DB11D80939D0390939E03A0939F037B
:100DA000B093A003892B8A2B8B2B99F48091A103FC
:100DB0009091A203A091A303B091A4030196A11D59
:100DC000B11D8093A1039093A203A093A303B093BA
:100DD000A4038091B7029091B802A091B902B0919A
:100DE000BA02E091BC03F091BD0380839183A2839A
:100DF000B3838091A9039091AA03A091AB03B09112
:100E0000AC030196A11DB11D8093A9039093AA0381
:100E1000A093AB03B093AC03892B8A2B8B2B99F453
:100E20008091AD039091AE03A091AF03B091B00358
:100E30000196A11DB11D8093AD039093AE03A093C5
:100E4000AF03B093B003AE960FB6F894DEBF0FBEFB
:100E5000CDBFDF91CF911F910F91FF90EF90DF9069
:100E6000CF90BF90AF909F908F907F906F905F904A
:100E70004F903F902F900895BC01CD016F5F7F4F41
:100E80008F4F9F4F0E944D29A50194010E94562A21
:100E90002B013C01C701B6010E944D29A501940117
:100EA0000E94562A20E030E040E85FE40E94562A83
:100EB0009B01AC01C301B2010E94A62861CC0115BF
:100EC000110509F065CCE091E702F091E80201908C
:100ED000F081E02D80819181A281B381E091BC03FA
:100EE000F091BD0380839183A283B38351CC60E0F2
:100EF0008ECC8F929F92AF92BF92FF920F931F93CF
:100F0000CF93DF93E7EAF2E08FE191E0DF01EC01BC
:100F10001D922197E9F729EB33E0378326838CEB89
:100F200093E09093E8028093E70245EAA42E43E021
:100F3000B42EB58AA48A46E353E057AF46AFC0E368
:100F4000D3E0D093EC02C093EB0245E953E0509319
:100F5000EA024093E90247E953E05093EE024093DE
:100F6000ED0242E353E05093F0024093EF0244E37A
:100F700053E05093F2024093F10248E353E0509360
:100F80002E0340932D03F0931203E0931103F58396
:100F9000E48361E070E0D9016D937C932DE733E049
:100FA0006DE373E0D9016D937C936DE473E070930E
:100FB000800360937F036DE573E070938203609319
:100FC00081036DE673E070938403609383030AEBFF
:100FD00017E0198308836BE8862E67E0962EEA01F6
:100FE00099828882318720872CE331E033872287FA
:100FF0002EEB33E0DC012D933C9340E050E060EABF
:1010000071E44093B5035093B6036093B7037093B4
:10101000B8034AE057ED63EA7CE3E501488359836E
:101020006A837B8325E833E089EE9EE2ADE3B6EB8D
:10103000E90188839983AA83BB8386EF9BE2ADEFA6
:10104000B8E38093890390938A03A0938B03B093B2
:101050008C0388E898EFAAE0B9ED80938D03909314
:101060008E03A0938F03B093900384E69CECA4E7D7
:10107000B2E58093910390939203A0939303B0936E
:101080009403ABE9B2E0B383A283E5E9F2E0119601
:10109000FC93EE9381E491E0918380839383828338
:1010A000958384838BE993E015969C938E93149794
:1010B00013963C932E93129748EE53E060E070E055
:1010C00018964D935D936D937C931B97EEE9F7E033
:1010D0008CE1DF011D928A95E9F780E1E801199220
:1010E0008A95E9F784E0F40111928A95E9F7CFE84F
:1010F000D7E08FE0DE011D928A95E9F7FF24F39493
:10110000FE86812C912C5401839489829A82AB8231
:10111000BC8262E080E04FD8FD82FD868E829F8295
:10112000A886B98664E085E05CD81A86E801188252
:1011300019821A821B821C821D821E821F821886BF
:1011400019861A861B861C861D861E861F86DF91C1
:10115000CF911F910F91FF90BF90AF909F908F9074
:10116000089580918F07811103C081E080938F07DC
:1011700008954F925F926F927F928F929F92AF925B
:10118000BF92CF92DF92EF92FF920F931F93F8944A
:101190004090D2035090D3036090D4037090D50355
:1011A000C090C603D090C703E090C803F090C90375
:1011B0004130510509F0A4C09B01AC012419350947
:1011C0004609570929013A010091CE031091CF0336
:1011D0002091D0033091D10348015901840C951C12
:1011E000A61CB71C80169106A206B306A0F40091B7
:1011F000CA031091CB032091CC033091CD030F5F34
:101200001F4F2F4F3F4F0093CA031093CB032093E0
:10121000CC033093CD038092CE039092CF03A09263
:10122000D003B092D1030091CA031091CB03209157
:10123000CC033091CD038092D6039092D703A09235
:10124000D803B092D9030093DA031093DB03209301
:10125000DC033093DD036093D2037093D303809358
:10126000D4039093D503A0E2BEE4A30192010E94AF
:1012700020496C0D7D1D8E1D9F1D6093C6037093CC
:10128000C7038093C8039093C90300910401109190
:10129000050120910601309107010F3F1F4F2F4F8D
:1012A0003F4FF1F0009104011091050120910601DA
:1012B000309107010E3F1F4F2F4F3F4F89F0C090D5
:1012C0000401D0900501E0900601F090070121E0B3
:1012D0008C149D04AE04BF0408F420E02093EA03BC
:1012E00078941F910F91FF90EF90DF90CF90BF9077
:1012F000AF909F908F907F906F905F904F900895E8
:101300004B015C0184189508A608B708A301920157
:10131000261B370B480B590B641575058605970579
:10132000D0F082169306A406B50640F420E030E023
:10133000A90181149104A104B10491F4A0E2BEE4D6
:101340000E942049A7019601261B370B480B590B19
:10135000CA01B901C5CF82169306A406B50670F777
:10136000A0E2BEE4A50194010E9420496C0D7D1D00
:101370008E1D9F1DB5CFFDCECF93DF9300D000D043
:10138000CDB7DEB71C821B821A8219821092E60347
:101390001092E7031092E8031092E9031092DE0323
:1013A0001092DF031092E0031092E1031092E20327
:1013B0001092E3031092E4031092E503BE016F5F05
:1013C0007F4FCE0103960E94652669817A818B81C9
:1013D0009C810E94B11F009761F4BE016F5F7F4F37
:1013E000CE0103960E94712669817A818B819C814E
:1013F00024D50F900F900F900F90DF91CF9108950B
:10140000FF920F931F93CF93DF93082F60E070E05C
:10141000CB010E941C44FF24F3940E949C1EEC010B
:10142000892B89F010E0CE3F8FEFD80769F00023B9
:1014300061F160E070E0CB010E941C4481E090E02B
:10144000892B59F322C011E01BD5EC01892B21F027
:10145000CE3F8FEFD80759F711111EC011E0229629
:1014600009F410E00E944D1EEC01892B21F0CE3FC3
:101470008FEFD807E1F6111111C011E0CE3F8FEFC9
:10148000D80709F410E001110BC0CE01DF91CF9114
:101490001F910F91FF90089511E0E4CF11E0F3CF79
:1014A00060E070E0CB010E941C441F25812F90E07A
:1014B000C7CFCF93DF938091EA03882321F060E0C8
:1014C00070E0CB0144D62DD6D0E0C0E0892B71F07E
:1014D0006AE070E080E090E00E941C4481E090DFD0
:1014E00020D62196C03D27E0D20781F71FD60E9463
:1014F000052010920204109201041092FB03109236
:10150000FC031092FD031092FE031092F703109259
:10151000F8031092F9031092FA031092F303109259
:10152000F4031092F5031092F6031092EF03109259
:10153000F0031092F1031092F2031092EB03109259
:10154000EC031092ED031092EE034EEF5FEF6FEF9E
:101550007FEF40930401509305016093060170935F
:1015600007011092EA03E6EDF3E028E0DF011D92A7
:101570002A95E9F71092D2031092D3031092D40364
:101580001092D5031092CE031092CF031092D00385
:101590001092D1031092CA031092CB031092CC0385
:1015A0001092CD031092C6031092C7031092C80385
:1015B0001092C903DF91CF91089510920E041092FA
:1015C0000F04109210041092110410920D048091D7
:1015D00016049091170490930C0480930B041092BE
:1015E0000A04109209041092050410920604109245
:1015F000070410920804109213041092120490E051
:1016000080E00895CF92DF92EF92FF920F931F93A5
:10161000CF938C01019709F055C0209116043091A9
:10162000170480910B0490910C0440911604509182
:10163000170450930C0440930B042817390781F0CA
:1016400010920A04109209041092050410920604E4
:1016500010920704109208041092130410921204BE
:101660008091160490911704019761F580911204FE
:1016700090911304892B21F480910801811112C0EB
:1016800080911204909113040197E1F48091050474
:1016900090910604A0910704B09108040197A10558
:1016A000B10581F41092050410920604109207040B
:1016B000109208041092080182E090E090931304C5
:1016C000809312048091160490911704019709F0F9
:1016D0001CC180912C0490912D048017910709F072
:1016E00014C18091280490912904A0912A04B091FA
:1016F0002B04009709F409C12091270421110DC082
:10170000409128045091290460912A0470912B047F
:10171000452B462B472B09F4F8C020911204309139
:1017200013042230310509F0F0C020910904211181
:10173000ECC0FC01C080D180E280F38080910D0478
:10174000882309F4D3C08091190490911A04892B3D
:1017500009F4FEC02091190430911A0481E022306E
:10176000310509F080E02091190430911A04C1E09C
:101770002130310549F02091190430911A04C1E05B
:101780002230310509F0C0E0882309F456C02091C9
:101790002304309124044091250450912604C7016C
:1017A000B6010E94522A87FD14C020912304309173
:1017B0002404409125045091260460910E047091F8
:1017C0000F0480911004909111040E941D2987FD3F
:1017D00022C020912304309124044091250450918B
:1017E0002604C701B6010E94522A181634F520912A
:1017F00023043091240440912504509126046091E3
:101800000E0470910F0480911004909111040E94B5
:101810001D29811112C080911B0490911C04A0917C
:101820001D04B0911E04892B8A2B8B2B19F481E0A7
:1018300080930A0481E080930904CC2309F456C004
:1018400020912304309124044091250450912604D2
:10185000C701B6010E941D2987FF14C020912304EF
:1018600030912404409125045091260460910E0487
:1018700070910F0480911004909111040E94522ADB
:1018800087FF22C020912304309124044091250435
:1018900050912604C701B6010E941D29811126C05E
:1018A0002091230430912404409125045091260472
:1018B00060910E0470910F048091100490911104B6
:1018C0000E94522A181694F480911B0490911C04D3
:1018D000A0911D04B0911E04892B8A2B8B2B19F427
:1018E00081E080930A0481E08093090481E0909173
:1018F0000904911180E080930D04C0920E04D092EF
:101900000F04E0921004F09211040130110509F067
:1019100067C18091120490911304892BD9F410921D
:1019200018041092090480910801882379F082E05C
:1019300090E0909313048093120410920801209178
:1019400016043091170481E0232BE9F080E01BC0DE
:1019500081E009CF1092080180911804882349F092
:1019600010920A0410921304109212041092180498
:10197000EDCF8091160490911704892BE1F08091AE
:1019800009041092090420911204309113042230AA
:10199000310509F45EC088F42115310509F448C009
:1019A0002130310509F4F3C010920A0410920904A1
:1019B0001092180438C081E0E6CF2330310509F4D5
:1019C000B1C02430310581F74091050450910604DF
:1019D0006091070470910804411551056105710576
:1019E00061F0415051096109710940930504509318
:1019F0000604609307047093080440910504509115
:101A000006046091070470910804452B462B472B70
:101A1000D9F420911404309115042130310509F0D6
:101A200046C010920A0410921304109212040CC0C3
:101A300080910801882341F082E090E090931304A4
:101A400080931204109208011092030480910A04FA
:101A5000CEC08823C9F380911B0490911C04A091EF
:101A60001D04B0911E04181619061A061B060CF068
:101A70007DC08091160490911704019709F076C0FB
:101A800080911B0490911C04A0911D04B0911E0430
:101A90008093050490930604A0930704B093080470
:101AA00083E090E09093130480931204CDCF409193
:101AB0001F04509120046091210470912204452B51
:101AC000462B472BA9F010920A0480911F04909195
:101AD0002004A0912104B0912204809305049093E6
:101AE0000604A0930704B093080481E090E0DACFE5
:101AF000882399F08091090190910A01A0910B012E
:101B0000B0910C018093050490930604A093070400
:101B1000B093080484E090E0C5CF10920A0482E0FC
:101B200090E0C0CF8091050490910604A091070435
:101B3000B09108040097A105B10559F00197A109DA
:101B4000B1098093050490930604A0930704B09311
:101B500008048091050490910604A0910704B091B7
:101B60000804892B8A2B8B2B09F06ECF80910901F9
:101B700090910A01A0910B01B0910C01892B8A2B45
:101B80008B2B09F44ECF81E080930A04B3CF4091B0
:101B900005045091060460910704709108044115F2
:101BA00051056105710561F04150510961097109E3
:101BB000409305045093060460930704709308044F
:101BC0004091050450910604609107047091080447
:101BD000452B462B472B09F037CF8111C7CF9FCF1D
:101BE00080910304882309F431CF80910404CF91BC
:101BF0001F910F91FF90EF90DF90CF90089510927A
:101C00000E0410920F0410921004109211041092FE
:101C10000D04109213041092120410920C041092EE
:101C20000B0410922D0410922C0410920A041092AE
:101C300009041092050410920604109207041092F1
:101C400008041092040410920304109228041092C5
:101C5000290410922A0410922B0410922704109247
:101C6000230410922404109225041092260488EE76
:101C700093E0A0E0B0E08093090190930A01A09363
:101C80000B01B0930C0110921F04109220041092CB
:101C900021041092220410921B0410921C04109232
:101CA0001D0410921E0410921A041092190481E06F
:101CB00080930801109218041092170410921604D1
:101CC000109215041092140490E080E00895809121
:101CD000160490911704892BE1F480910801882360
:101CE00051F080911804811106C081E080930404B2
:101CF00080930304089580911804882341F0809113
:101D00000801811104C01092040481E0F1CF109207
:101D10000304089582E090E0FA01918380838FEFBD
:101D20009FEF0895CF93DF93EA01009711F00E948F
:101D300022211982188290E080E0DF91CF910895EE
:101D4000DB01009719F48FEF8C9308952EEF2C93FD
:101D500040968031910508F036C0FC01EE54F14FF9
:101D60000C941349E10EDF0EDD0EDB0ED90ED70EFB
:101D7000D30ED50ED10ECF0ECD0ECA0EC60EC20E8C
:101D8000C80EE30E80E311968C93089589E2FBCF91
:101D900082E2F9CF11961C92089583E2F4CF81E29A
:101DA000F2CF81E1F0CF87E2EECF8AE2ECCF80E1A3
:101DB000EACF84E2E8CF88E2E6CF86E2E4CF81E3AF
:101DC000E2CF83E3E0CF80E2DECF90933B048093C9
:101DD0003A04089580913904089590913904892B2B
:101DE000809339040895982F909580913904892320
:101DF00080933904089580913804089580913604C1
:101E00009091370408956115710559F0FB0130E098
:101E100020E070E060E02417350719F061157105C6
:101E200011F0CB010895A081B181A817B90709F479
:101E3000BF012F5F3F4F3696EECF80913C0481115A
:101E40001CC062D268D290932F0480932E040E940B
:101E500027190E94391990933304809332040E9409
:101E6000B71D0E94BE1D909331048093300481E021
:101E700080933C0490E080E0089584EF9FEF089504
:101E80008F929F92AF92BF92CF92DF92EF92FF928A
:101E90000F931F93CF93DF93CDB7DEB72A970FB67B
:101EA000F894DEBF0FBECDBF1A86198618861F8232
:101EB0001E821D821C821B821A82198280913C0420
:101EC00007EF1FEF882309F49CC08E010D5F1F4FA1
:101ED0009E012B5F3F4FAE01495F5F4FBE01675FC1
:101EE0007F4F90E080E00E94371F8C01009721F027
:101EF0000596029708F0DBC029853A852115310542
:101F000009F402C1ED80FE804B815C81B701640F52
:101F1000751F8F8198858617970708F4F5C0E20E24
:101F2000F31ED7019C91903C09F07FC042305105CF
:101F300008F47BC011968C9140913A0450913B0477
:101F4000452B09F49CC0913F08F071C02CE1290F8A
:101F50002D3008F48BC02DE2290F203108F489C000
:101F6000903C21F48150823008F483C088E3890FCB
:101F70008B3008F481C090EAC92E9EE0D92EEAE8A1
:101F8000FEE06D817E81AE014F5F5F4F89859A854E
:101F900009955C01C114D104A1F189809A80811452
:101FA000910479F18B819C818815990508F487C08B
:101FB00010E000E04B815C8170E060E0C7010E94AE
:101FC000ED4901151105E9F449815A8169857A8540
:101FD0008D819E81680F791FC501F6010995E98001
:101FE000FA800D811E812F81388549855A856FEFD2
:101FF0007FEF81E090E00E94D31E8C01892B09F0D5
:1020000056C0C8012A960FB6F894DEBF0FBECDBFEA
:10201000DF91CF911F910F91FF90EF90DF90CF90C4
:10202000BF90AF909F908F90089580E085CF30E073
:1020300020E0220F331FF901E25DFB4F0190F08198
:10204000E02D309709F497CF892F90E009950097FC
:1020500009F491CFDC011296ED91FC91139714963F
:10206000CD90DC90309709F08CCF1FC021E030E09C
:10207000E0CF22E030E0DDCF23E030E0DACFD12C3A
:10208000C12CE2E9FEE09F3F09F07BCFE0912E04F6
:10209000F0912F04309721F4C90104EF1FEF0CC019
:1020A0008FEF90E009950097A9F604EF1FEF89855F
:1020B0009A85009709F4A5CF0E942221A2CF0E9401
:1020C00000208C0189859A850E94222170E060E0C1
:1020D000C4010E94991F98878F830E94D01E9E83FF
:1020E0008D836F8178856115710559F0C8010E9453
:1020F000AE229A87898706EF1FEF892B09F058CF08
:1021000059CF08EF1FEF56CF08EF1FEFD0CF209128
:102110003C04222319F020E00C943E1987EF9FEF36
:10212000089580913A0490913B0408950E94C31D44
:102130000E941D1DF5D0EEE2F4E088E0DF011D9263
:102140008A95E9F710923C0490E080E008950C94A1
:102150007A1B21E040E050E0BA010C943E1986E081
:1021600090E0FA019183808390E080E0089547E059
:1021700050E064E471E047CEDF92EF92FF920F935C
:102180001F93CF93DF938A01EC01C60FD71FE09016
:102190004004F0904104D9800E94E81FD816190627
:1021A00078F082E090E0F801918380838EEF9FEFDA
:1021B000DF91CF911F910F91FF90EF90DF900895E5
:1021C000EF2841F482E090E0F8019183808384EF6E
:1021D0009FEFEECF898180933F0490E00196F80154
:1021E0009183808390E080E0E3CFCF93DF93EA0197
:1021F0000E942B1C882321F00E94F51F0E942C1C9A
:1022000082E090E0998388838BEF9FEFDF91CF91FD
:102210000895CF93DF93EB0186E0FB0111928A953D
:10222000E9F78FEF8883D6DD8983E5DD8A83E6DDF4
:102230009D838C83DF91CF910895CF93DF93EA0143
:102240000E942E1C811109C082E090E0998388834E
:1022500085EF9FEFDF91CF91089590E080E0B5DDAD
:1022600081E090E09983888390E080E0F3CF0F9342
:102270001F93CF93DF93EA018C01060F171F0E9473
:102280002E1C81110BC082E090E09983888385EF3A
:102290009FEFDF91CF911F910F910895F8018181F8
:1022A000823038F082E090E0998388838EEF9FEF50
:1022B000F0CF81E090E089DD88E090E09983888329
:1022C00090E080E0E6CFCF93DF930097D1F4EB016D
:1022D000FB01329686E0DF011D928A95E9F78FEFC8
:1022E000888385E089831A820E94E81F8B830E947D
:1022F000E71F9D838C8381E08E838F83DF91CF9155
:102300000895DF91CF911CCD87EB90E190933E042F
:1023100080933D04089580913D0490913E0408957A
:1023200010923E0410923D040895809140049091D3
:1023300041040895411105C061157105810591059C
:1023400061F0609340047093410480934204909341
:1023500043044093440481E0089580E00895FF928F
:102360000F931F93CF93DF938A01EC01C60FD71F02
:10237000F9800E94E81FF816190668F082E090E0E4
:10238000F801918380838EEF9FEFDF91CF911F91B2
:102390000F91FF9008956C817D818E819F814B818B
:1023A000C9DF811108C082E090E0F8019183808349
:1023B00084EF9FEFEACF898180933F0490E00196FC
:1023C000F8019183808390E080E0DFCFCF93DF93AB
:1023D000EA01FC01E60FF71F648175818681978110
:1023E0004381A8DF811109C082E090E0998388834E
:1023F00084EF9FEFDF91CF91089581E090E0998382
:10240000888390E080E0F6CFE0E4F4E04081518101
:1024100062817381480F511D611D711D408351837D
:10242000628373830895CF93C0913F044C2F50E093
:10243000609140047091410401960E94E4498C2F00
:10244000E3DF10923F04CF910895009799F48091B3
:102450004004909141042FEFFB012083892B59F018
:1024600020913F0430E02F5F3F4F2417350719F4C8
:10247000CB01D9CF65CC0895009799F480914004A1
:10248000909141042FEFFB012083892B59F020917B
:102490003F0430E02F5F3F4F2417350719F4CB017D
:1024A000C2CF4ECC089523E1AC01249FC001259FEB
:1024B000900D1124E0914904F0914A04E80FF91FAE
:1024C000238134812250310981E02230310508F026
:1024D00080E008950F931F93CF93DF9300914B04F7
:1024E00010914C04D0E0C0E080E00C171D0749F4C7
:1024F00091E0811190E0892FDF91CF911F910F9191
:1025000008958111F5CFCE01CEDF2196EECFA091B7
:102510004904B0914A04109729F120914B0430915D
:102520004C0482179307F0F453E1589F9001599F90
:10253000300D1124A20FB31FED91FC91119730972C
:1025400089F012968C91681768F48DE0689FE00D11
:10255000F11D112480819181892B21F081E09281EC
:10256000491708F080E008959C0143E1429FC001B3
:10257000439F900D1124E0914904F0914A04E80F23
:10258000F91F8385823091F481E090E06581768146
:1025900040910D0150910E016417750711F490E000
:1025A00080E0892B19F081E0232B09F080E0089569
:1025B000FC01A081B1818DE0689FA00DB11D1124A7
:1025C00013964D915C9185859685489F9001499F12
:1025D000300D589F300D1124C9010196611103C0BF
:1025E000478144FD04960895EF92FF920F931F9345
:1025F000CF93DF93EA01FC01E60FF71F02811381FD
:10260000E480F5804F2D6E2DC80181DF81110DC052
:1026100082E090E0998388838EEF9FEFDF91CF91E6
:102620001F910F91FF90EF900895C8013CDF882320
:1026300039F082E090E09983888388EF9FEFEECFB6
:102640001093140100931301E0921501F09216010A
:1026500081E090E09983888390E080E0DFCFCF92A3
:10266000DF92EF92FF920F931F93CF93DF937A0144
:10267000EC01C60FD71FC0901301D0901401009138
:10268000150110911601412F602FC60140DF811105
:1026900010C082E090E0F701918380838AEF9FEF82
:1026A000DF91CF911F910F91FF90EF90DF90CF902E
:1026B0000895C601F8DE882341F082E090E0F7013A
:1026C0009183808388EF9FEFEBCF4C815D816E819A
:1026D0007F819A8189818F3F41F082E090E0F7010C
:1026E000918380838EEF9FEFDBCFE3E1EC9D900140
:1026F000ED9D300D1124E0914904F0914A04E20F60
:10270000F31F0190F081E02D2DE0029FE00DF11DFF
:1027100011240190F081E02D27E0129FE00DF11DC2
:102720001124808391838B818283438354836583C7
:1027300076831F5F1093160181E090E0F70191838B
:10274000808390E080E0ACCFEF92FF920F931F93D5
:10275000CF93DF937A018C01060F171FC0914904B4
:10276000D0914A04209781F021E030E0F801828185
:10277000938140914B0450914C048417950710F0BD
:1027800030E020E0232B71F482E090E0F7019183A8
:1027900080838EEF9FEFDF91CF911F910F91FF907C
:1027A000EF90089543E1489F9001499F300D112417
:1027B000C20FD31F78DE882341F082E090E0F7015A
:1027C0009183808388EF9FEFE6CFF80124813581E4
:1027D00020383105C8F687818111D6CF4181842FF9
:1027E00090E08F7E009741F082E090E0F7019183C6
:1027F000808386EF9FEFCFCF4F833E832D8326814B
:1028000028871986223010F421E0288721E030E063
:10281000F70131832083BFCF88E090E0FA019183F4
:10282000808390E080E00895FB018FEF808381E159
:1028300081838FEF9FEF9383828380E890E095837D
:102840008483168217820895FB018FEF808391E0C5
:10285000918382839383848384E3858381E090E002
:1028600097838683089582E090E0FA0191838083C4
:1028700080EF9FEF0895DF92EF92FF920F931F93E7
:10288000CF93DF93EA01FC01E60FF71F81818130CE
:1028900071F082E090E0998388838FEF9FEFDF9162
:1028A000CF911F910F91FF90EF90DF90089582815B
:1028B0009381D4802581E680F780009149041091AE
:1028C0004A040115110539F482E090E09983888368
:1028D0008CEF9FEFE4CF40914B0450914C04841750
:1028E000950738F082E090E0998388838EEF9FEF20
:1028F000D6CF892B39F082E090E09983888386EFE8
:102900009FEFCDCF8D2D8D7FB1F72130A1F781E0E5
:10291000D11006C091E0E916F10431F080E004C066
:10292000E2E0EE16F104D0F3882329F390E080E092
:10293000BADD882339F082E090E09983888388EFBC
:102940009FEFADCFF801D38681E08487F686E586D8
:10295000108A178681E090E09983888390E080E078
:102960009ECF4DE050E06EE671E04DCA8F929F928F
:10297000BF92CF92DF92EF92FF920F931F93CF936C
:10298000DF93EA01FC01E60FF71F82819381048146
:10299000B580E0914904F0914A04309791F482E0C7
:1029A00090E0998388838CEF9FEFDF91CF911F9107
:1029B0000F91FF90EF90DF90CF90BF909F908F90FE
:1029C000089520914B0430914C048217930738F0FE
:1029D00082E090E0998388838EEF9FEFE6CF23E13A
:1029E000289F6001299FD00C1124EC0DFD1DE08073
:1029F000F180E114F10499F28281081748F78DE023
:102A0000089F80011124E00EF11EF7018081918161
:102A1000892B29F6BB20E1F2F7E0BF9E400111248B
:102A2000C4010E94E920F70191838083E091490469
:102A3000F0914A04EC0DFD1D0190F081E02DE00FB6
:102A4000F11F80819181009739F482E090E09983B1
:102A500088838DEF9FEFA9CFA40170E060E00E9412
:102A6000ED498091490490914A04C80ED91EF6019F
:102A700080819181080F191FF801B28281E090E0F6
:102A80009983888390E080E090CFAF92BF92CF92FD
:102A9000DF92FF920F931F93CF93DF93EA01FC0124
:102AA000E60FF71F82819381F48000914904109111
:102AB0004A040115110581F482E090E0998388832E
:102AC0008CEF9FEFDF91CF911F910F91FF90DF90DF
:102AD000CF90BF90AF90089520914B0430914C045B
:102AE0008217930738F082E090E0998388838EEF15
:102AF0009FEFE8CF2FEF2F0D2C3FA8F723E1289F62
:102B00006001299FD00C11240C0D1D1DF80180813E
:102B10009181892B89F6FDE0FF9E50011124C501AA
:102B20000E94E920F80191838083E0914904F091AB
:102B30004A04EC0DFD1D80819181009739F482E0FB
:102B400090E0998388838DEF9FEFBCCFA50170E063
:102B500060E00E94ED49E0914904F0914A04EC0DD7
:102B6000FD1DF28281E090E09983888390E080E00F
:102B7000A9CFCF92DF92EF92FF920F931F93CF9343
:102B8000DF93860F971FFC01028113818091490416
:102B900090914A04892B81F082E090E0FA019183C0
:102BA00080838CEF9FEFDF91CF911F910F91FF906A
:102BB000EF90DF90CF900895C801B0E0A0E00197BA
:102BC000A109B1098F3F9F4FA105B10540F082E0F7
:102BD00090E0FA01918380838EEF9FEFE4CF7A013A
:102BE00083E1809F6001819FD00C1124C6010E9467
:102BF000E920EC01009741F482E090E0F701918335
:102C000080838DEF9FEFCFCFA60170E060E00E9440
:102C1000ED49D0934A04C093490410934C040093A7
:102C20004B0490E080E02FEF3FEF41E061E070E087
:102C30008017910741F481E090E0F7019183808350
:102C400090E080E0B0CF3A8B298B1B864C877E8743
:102C50006D87188A1F8601966396EACFEF92FF92DE
:102C60001F93CF93DF93EC0110E0F12CE12C6A81EC
:102C70001617A8F070E0660F771FAE014F5E5F4F2A
:102C8000C7010E944E21009721F02FEF3FEF3A8BB2
:102C9000298BDF91CF911F91FF90EF900895612FC5
:102CA000CE0186DC61E070E00E94991FE816F9060B
:102CB00008F47C011F5FDBCFF8942091470430912A
:102CC000480481E02115310509F080E0232B09F04B
:102CD000789408952F923F924F925F926F927F92D5
:102CE0008F929F92AF92BF92CF92DF92EF92FF921C
:102CF0000F931F93CF93DF933C01660E771EF30172
:102D0000828193814C01B12CA12CC0914904D091B6
:102D10004A04209769F021E030E060914B04709103
:102D20004C048617970710F030E020E0232BD1F4F5
:102D300082E090E0FA01918380838EEF9FEFDF9134
:102D4000CF911F910F91FF90EF90DF90CF90BF90A8
:102D5000AF909F908F907F906F905F904F903F903B
:102D60002F9008958092170190921801A092190156
:102D7000B0921A0163E1689F9001699F300D1124A0
:102D8000C20FD31FF3018181833040F082E090E0D5
:102D9000FA019183808386EF9FEFD1CF2A012B81A7
:102DA0003C81232BF1F4288139819F8191FF2EC032
:102DB000232B09F46FC020914E049A81422F490FB2
:102DC0005527551FBA0141E050E06138710514F0F4
:102DD00050E040E0452B09F45DC02A87920F9093A4
:102DE0004E048150823008F481C066DF882309F4E4
:102DF000D8C0F3018181813009F48DC008F47BC013
:102E0000823009F4C6C090E080E0ADC0232B09F405
:102E100041C020914D049A81E22FE90FFF27FF1F47
:102E200041E050E0ED3FF10514F050E040E0452B6B
:102E300089F12A87920F90934D04D3CFA081B1815D
:102E4000A20FB31F11966C91060F111D0196295FF9
:102E50003F4F8417950794F38D859E85089F100139
:102E6000099F300C189F300C1124C114D104D1F4E7
:102E70008F8184FF17C00E94E71FF5E02F0E311CE1
:102E800021E08215930508F420E0A701435F5F4F1E
:102E900021110EC082E090E0F2019183808387EFE0
:102EA0009FEF4DCF0E94E71F2FEF221A320AE8CF83
:102EB00088819981E80EF91EF70114830383FFEFDF
:102EC000CF1ADF0A7A018A818C151D0409F00CF4EF
:102ED0008CCFE881F981EE0DFF1D428150E030E09A
:102EE00020E010E000E090E080E0B3CFF12CE12C96
:102EF000D12CC12CE8CF81E090E09C838B83EADA6F
:102F0000882309F480CF81E090E00E94E50E80E400
:102F10000E94F30E78CF89899A89019661F083E047
:102F200090E09C838B8382E090E00E94E50E80E439
:102F30000E94ED0E68CF8D819E8120910D01309110
:102F40000E0182179307D1F4609111017091120163
:102F5000AE014F5E5F4F80910F01909110010E9472
:102F60006D220097E1F2789422E030E0F2013183A3
:102F70002083892B99F08DEF9FEFE1CE89288A2855
:102F80008B2869F6029758F6CE0168DE188A1F86EC
:102F9000E8CF82E090E09C838B8335CF90E080E0A7
:102FA000CECE82E090E0F2019183808385EF9FEFA7
:102FB000C6CE8F929F92AF92BF92CF92DF92EF9246
:102FC000FF920F931F93CF93DF93EA018C01060FBB
:102FD000171FF8018181833098F082E090E0998397
:102FE000888386EF9FEFDF91CF911F910F91FF9024
:102FF000EF90DF90CF90BF90AF909F908F9008950B
:103000008091490490914A04892B61F081E090E01D
:1030100020914B0430914C04232B11F490E080E07C
:10302000892B39F482E090E0998388838EEF9FEFBB
:10303000DACF42DE882309F4E0C0F80181818130D3
:1030400009F496C0E8F0823099F420914B04309155
:103050004C04E0914904F0914A0490E080E041E0A2
:1030600050E02817390709F0BEC034DA811117C0C3
:10307000789481E090E09983888390E080E0B3CFFA
:1030800020914B0430914C04E0914904F0914A04A2
:1030900090E080E041E050E02817390741F481E0FA
:1030A00090E00E94E50E80E40E94F30EE1CF638180
:1030B0007481672B11F05483438301967396ECCF90
:1030C000E0914904F0914A04E00FF11F238134811B
:1030D00022303105D9F4218932892F3F3F4FB1F495
:1030E0002581368140910D0150910E01241735073D
:1030F00061F5AF014F5E5F4F609111017091120158
:1031000080910F01909110010E946D22EFEFCE1A75
:10311000DE0AEE0AFE0A0D5E1F4F40914B045091ED
:103120004C0470E060E0C416D506E606F70644F5E8
:10313000009731F27894892B09F49BCF82E090E0DC
:10314000998388838DEF9FEF4ECFC114D104E104A2
:10315000F104E1F622303105C8F6CF017FDDE091C0
:103160004904F0914A04E00FF11F108A1786CECF70
:1031700010E000E090E080E0C12CD12C7601CDCFB2
:103180000097C1F610E000E0812C912C540183E0FF
:10319000E82EF12C1AC0E0914904F0914A04E00FA6
:1031A000F11F83819481029749F4F482E38282E0E3
:1031B00090E00E94E50E80E40E94ED0EFFEF8F1A72
:1031C0009F0AAF0ABF0A0D5E1F4F80914B0490917A
:1031D0004C04B0E0A0E088169906AA06BB06DCF213
:1031E00090E080E0A7CF638174816230710511F4B3
:1031F000548343830196739634CF82E090E09983A1
:10320000888385EF9FEFEFCE0097B9F48FEFFB0136
:103210008083209117013091180143E1429FC00142
:10322000439F900D1124E0914904F0914A04E80F66
:10323000F91F8285FB01818308950C94A00E88E01C
:1032400090E0FA019183808390E080E008951092ED
:10325000480410924704E9E4F4E086E0DF011D929F
:103260008A95E9F781EB94E19093460480934504B5
:103270000895809145049091460408952F923F92BD
:103280004F925F926F927F928F929F92AF92BF9276
:10329000CF92DF92EF92FF920F931F93CF93DF9322
:1032A000CDB7DEB72F970FB6F894DEBF0FBECDBFF8
:1032B000F894E0914704F09148043196F093480463
:1032C000E093470478944090490450904A04411494
:1032D000510409F40CC2E0914B04F0914C04EF2B23
:1032E00009F405C22D8749875A876B877C879887A1
:1032F0008F831201B12CA12C10E000E080914B04CF
:1033000090914C04A816B90618F40115110529F17D
:10331000F894809147049091480401979093480451
:10332000809347047894C8012F960FB6F894DEBFB7
:103330000FBECDBFDF91CF911F910F91FF90EF9006
:10334000DF90CF90BF90AF909F908F907F906F90C5
:103350005F904F903F902F9008957101E418F50809
:10336000D10117968C91179781FD54C013968D91BA
:103370009C911497039709F04DC015968D919C91DF
:10338000EF81F8858E179F0709F044C0B50190E0E2
:1033900080E07ED48A832091490430914A043D83A1
:1033A0002C833D85332309F44CC04C815D81452B32
:1033B00009F49AC180914B0490914C04A816B90667
:1033C00008F092C1C501D0D88823E9F06C817D81D5
:1033D0006E0D7F1D7D836C83DB011F968D919C910B
:1033E000892B89F0D12CC12CF12CE12CAC81BD8131
:1033F00012968C9112978E151F0409F094F4509632
:103400001C921E921F972A81222321F0B50190E081
:1034100080E040D43FEFA31AB30A43E1240E311CED
:103420006DCFAC81BD81ED91FC91EC0DFD1D8581D1
:10343000968108D7BFEFEB1AFB0AEDE0CE0ED11C48
:10344000D5CFEC81FD81309709F44EC180914B04BA
:1034500090914C04A816B90608F046C1EE0DFF1D68
:10346000FF87EE87C50180D88B83882339F1AE852D
:10347000BF851F968D919C915097019621E01D96D6
:103480004D915C918417950709F020E02E831982F5
:10349000712C10E000E0AE85BF8512968C917816F5
:1034A00008F45DC0EE85FF85878590890196658566
:1034B00076850E94C148908B8787A5CFB1E0BE83F7
:1034C000E6CF992493946BC084D6F60196838583C6
:1034D00082C0D601ED90FC90B7E06B9EE00CF11C31
:1034E0001124F7016381748180818F3F61F121E0B4
:1034F00030E002C0220F331F8A95E2F7C901092E7E
:10350000000CAA0BBB0BFB014081518162817381CE
:1035100084239523A623B72321E0892B8A2B8B2B89
:1035200009F420E0D4012C93D70111968C91F60177
:1035300023853485820F932F911D880E991E148642
:10354000138663949BC0418150E0C4010E94E4490A
:10355000EBCF998206EF1FEFC5C01982C3C0F98176
:10356000F111A0CFEDE07E9E70011124AE85BF85E4
:10357000CD90DC90CE0CDF1C13D49D838C83BB815B
:10358000BB2309F49ECF81E0EE85FF852785308936
:10359000232B09F080E0982E882309F458C0672D6A
:1035A0008E859F8505D8D60118969C938E93179784
:1035B00061E070E0BED4EE85FF85218932892F3F1E
:1035C000320709F481CFBC01C901C8D7D6011696CC
:1035D0009C938E931597D60115968D919C91169775
:1035E000009709F4B6CFEC81FD818E0F9F1F1A96CC
:1035F0009C938E931997AE85BF85ED91FC911197A1
:10360000EE0EFF1EF70121853285148613861A9669
:103610008C91870DD9018D93711016C0EE85FF85B1
:10362000878184FF11C049855A856B857C85F901A6
:103630004183528363837483F70183859485049661
:10364000A80FB91F14861386F701B287A187D60188
:1036500015968D919C911697892B09F443C0EE85A0
:10366000FF852581368180910D0190910E012817EB
:10367000390779F019968D909C90612CD60112969D
:103680008C911297681608F424CF1A969C928E9209
:103690001997BE81BB2309F460CF61E070E0F601A9
:1036A0008781908546D4D6011796ED90FC901897A7
:1036B00015964D915C91E1E0F0E0BA81BB2311F0E9
:1036C000F0E0E0E00C811D819C01B501882799277D
:1036D0008E1B9F0B68D38C01892B21F0F60185810D
:1036E0009681B0D57394D7CE0FEF1FEF8CCE10E03C
:1036F00000E00ECE2F923F924F925F926F927F9298
:103700008F929F92AF92BF92CF92DF92EF92FF92F1
:103710000F931F93CF93DF938091490490914A04B4
:1037200010E000E0892BA9F0C7DA0AEF1FEF882329
:1037300081F020904B0430904C04C0914904D0910A
:103740004A04D12CC12C10E000E02C143D04A9F453
:103750007894C801DF91CF911F910F91FF90EF9066
:10376000DF90CF90BF90AF909F908F907F906F90A1
:103770005F904F903F902F900895C6010E94B41221
:10378000882309F18B819C810397E9F48F859889BF
:10379000892BC9F0B60190E080E07AD221E030E0D8
:1037A000882311F030E020E044245524421A530AC3
:1037B000B12CA12C912C812C8A818815190409F037
:1037C00038F4188A1F864FEFC41AD40A6396BDCF07
:1037D000E881F981EA0DFB1D85819681892BA1F194
:1037E00061E070E087819085A4D33C01D9D28C013F
:1037F000E881F981EA0DFB1D81859285258136815D
:10380000200F311FAC01421B530B9A014781508599
:10381000421B530B70E060E00E94ED49E881F981A2
:10382000EA0DFB1DE780F084458156819301B601C6
:10383000C201B9D28C01892B39F0E881F981EA0DF6
:10384000FB1D85819681FED45FEF851A950A8DE078
:10385000A80EB11CB1CF30CA789408952F923F9230
:103860004F925F926F927F929F92AF92BF92CF9250
:10387000DF92EF92FF920F931F93CF93DF9300D0CD
:1038800000D000D0CDB7DEB70091490410914A04B2
:10389000992493940115110509F43EC0A0904B049E
:1038A000B0904C0409DA982E8823B1F110924A04A2
:1038B0001092490410924C0410924B0410924D0443
:1038C00010924E048FEF9FEFDC01809317019093CD
:1038D0001801A0931901B0931A0178947AD31E832A
:1038E0000D83C12CD12C7601C501B0E0A0E0898305
:1038F0009A83AB83BC8322242A94322C89819A81B7
:10390000AB81BC81C816D906EA06FB06F4F0C801F3
:1039100099D480E40E94F30E892D26960FB6F89470
:10392000DEBF0FBECDBFDF91CF911F910F91FF90F2
:10393000EF90DF90CF90BF90AF909F907F906F906F
:103940005F904F903F902F900895AD81BE81159666
:103950008D919C91169720910D0130910E01821747
:103960009307D1F451968D919C91E6D5ED81FE811E
:1039700080819181B12CA12C412C512C3201892BB9
:1039800089F5BFEFCB1ADB0AEB0AFB0AED81FE815A
:103990007396FE83ED83B2CFC114D104E104F10428
:1039A00029F7029718F7ED81FE81818992898F3F6F
:1039B000980709F021D5AD81BE8152963C922E9296
:1039C0005197D4CF8A0D9B1DDC018D919C9100975E
:1039D00009F038D4BFEF4B1A5B0A6B0A7B0AEDE0A3
:1039E000AE0EB11CAD81BE818D919C911197129646
:1039F0004C9150E070E060E044165506660677068C
:103A00000CF320D4BECFCF93DF93EA0127DF8111DF
:103A100009C082E090E09983888385EF9FEFDF9172
:103A2000CF91089581E090E00E94E50E81E090E062
:103A30009983888390E080E0F2CF10DF10924604F3
:103A400010924504089542E050E06CEB71E00C9454
:103A5000030FFF920F931F93CF93DF938A01EC0123
:103A6000C60FD71FF980B4D20897F816190671F05F
:103A700068F082E090E0F801918380838EEF9FEF01
:103A8000DF91CF911F910F91FF9008956C817D81FF
:103A90008E819F814B810E949A11811108C082E022
:103AA00090E0F8019183808384EF9FEFE9CFF98064
:103AB0000E9495114F2D50E0BE01685F7F4F0E941C
:103AC000E44989810E94041281E090E0F801918329
:103AD000808390E080E0D4CFDF92EF92FF920F934B
:103AE0001F93CF93DF938A01EC01C60FD71F0E946B
:103AF00095117C01D9806CD2DD2059F0029721E02C
:103B000030E0D816190619F010F030E020E0232B31
:103B100079F482E090E0F801918380838EEF9FEF4B
:103B2000DF91CF911F910F91FF90EF90DF9008955B
:103B3000EF2841F482E090E0F8019183808384EFE4
:103B40009FEFEECFF9800E9495114F2D50E0BE01FE
:103B50006E5F7F4F0E94E44989810E94041281E0D8
:103B600090E0F8019183808390E080E0D9CF83E2F8
:103B70009DE19093500480934F04089580914F04E9
:103B80009091500408950895FC011182108293834E
:103B900082830895DB011D921C92DC011296ED9147
:103BA000FC9113977183608313967C936E931297A5
:103BB0000895FC0180819181DB018D939C93A0810C
:103BC000B181109741F08D919C9191838083892BD5
:103BD00011F4F383E2830895FC0180819181DB017C
:103BE0008D939C93892B11F473836283718360831B
:103BF0000895FC0111821082938382830895CF93EC
:103C0000DF9300D0CDB7DEB71A821982F894BE01D7
:103C10006F5F7F4F86E594E0CCDF89819A810097C2
:103C200009F010D389819A81892B89F7BE016F5FD2
:103C30007F4F8AE594E0BDDF89819A81009709F082
:103C400001D389819A81892B89F778940F900F90FD
:103C5000DF91CF910895CF93DF9300D0CDB7DEB73A
:103C60001A821982F894BE016F5F7F4F82E594E05B
:103C7000A0DF89819A81009709F0E4D289819A8135
:103C8000892B89F778940F900F90DF91CF91089549
:103C900081E0089590E080E00895EF92FF920F9305
:103CA0001F93CF93DF9300D0CDB7DEB71A8219826E
:103CB0008091510407EF1FEF8823A1F1F894BE0112
:103CC0006F5F7F4F8AE594E074DF789489819A81F1
:103CD000EE24E394F12C892B51F4F894BE016F5F2C
:103CE0007F4F86E594E065DF7894F12CE12C8981A3
:103CF0009A810EEF1FEF0097A9F0FC0142815381DA
:103D000064E070E05FD68C01892B61F0F8946981E2
:103D10007A81C701880F991F880F991F8A5A9B4F74
:103D20005BDF7894C8010F900F90DF91CF911F91C6
:103D30000F91FF90EF9008950F931F93CF93DF9310
:103D400000D000D0CDB7DEB71C821B821A82198248
:103D50008091510407EF1FEF8823C1F0AE014D5F42
:103D60005F4F64E070E0CE01019671D68C01892B23
:103D700069F4E981FA818B819C8193838283F89431
:103D800069817A8182E594E005DF7894C8010F901B
:103D90000F900F900F90DF91CF911F910F91089589
:103DA0005BD7049608958F929F92AF92BF92CF9265
:103DB000DF92EF92FF920F931F93CF93DF9300D088
:103DC000CDB7DEB71A821982BC016F5F7F4F6330B7
:103DD000710598F0AA24AA94BA2CC5010F900F90EF
:103DE000DF91CF911F910F91FF90EF90DF90CF90D7
:103DF000BF90AF909F908F9008954115510551F35A
:103E0000480159018A016C01CBDF8815990511F72A
:103E1000E114F104F9F28E0D9F1DA816B906D0F237
:103E2000809151048823F1F0F894B5016450710930
:103E30009701AE014F5F5F4FC8010496A5D65C01A4
:103E4000892B71F489819A81F80193838283C60159
:103E5000880F991F880F991FB8018A5A9B4F9ADEC5
:103E60007894BBCF87EFA82EBB24BA94B6CFAF927D
:103E7000BF92CF92DF92EF92FF920F931F93CF9357
:103E8000DF9300D0CDB7DEB71A821982892B09F0F3
:103E900047C06115710509F443C04115510509F486
:103EA0003FC02115310509F43BC001151105C1F1D1
:103EB000809151048823B9F179016A015B01F8947A
:103EC000BE016F5F7F4F82E594E073DE7894898155
:103ED0009A81009759F1DC0112966D917C91A801AD
:103EE00004966BD68C01E981FA81D501ED93FC93A0
:103EF000828193810496F6019183808351DFD701FB
:103F00008D939C93C8010F900F90DF91CF911F91DB
:103F10000F91FF90EF90DF90CF90BF90AF900895FA
:103F20000FEF1FEFEFCF07EF1FEFECCF0EEF1FEFFD
:103F3000E9CFCF93DF93EC01672B71F496D68C1702
:103F40009D0760F089D62496C80FD91F88D68C0F9C
:103F50009D1FDF91CF91089585D6F1CF90E080E04D
:103F6000F8CF0F931F93CF93DF932091510421112A
:103F70002BC08B01EC0186E594E006DE8AE594E037
:103F800003DE82E594E000DE97D00097C1F46DD6A1
:103F900070E060E0CEDF4BE151E062E070E07ED1A6
:103FA000009769F480911B0190911C0170D6B801B3
:103FB000CE01EED4009719F421E020935104DF9153
:103FC000CF911F910F91089584EF9FEFF8CF4AC6CC
:103FD0004CC6CF93DF934CD6EC01892B11F40FDE46
:103FE0003ADECE01DF91CF910895CF93DF9340D693
:103FF000EC01892B09F403DECE01DF91CF91089506
:1040000080911B0190911C010895CF93DF938091C3
:104010005104D0E0C0E08823D1F03ED6EC01892BDA
:10402000B1F4EDDD18DE80911B0190911C01E4D10B
:10403000E5D2EC01892B59F486E594E0DADD8AE5D6
:1040400094E0D7DD82E594E0D4DD10925104CE01F6
:10405000DF91CF910895EF92FF920F931F93CF932B
:10406000DF93EC017A018B010F5F1F4F0E9DA001C2
:104070000F9D500D1E9D500D112470E060E00E94B8
:10408000ED4990E080E0F0E0E0E02FEFE816F9067F
:1040900039F4DF91CF911F910F91FF90EF90089528
:1040A0001A8219822883309711F0D283C183019636
:1040B000FE01C00FD11FEACFCF92DF92EF92FF92A5
:1040C0000F931F93CF93DF930AE315E00C7F43E038
:1040D00050E06DE171E083E291E014D48DE1E82ECF
:1040E00081E0F82E93E2C92E91E0D92EC1EAD5E005
:1040F000D7014D915D917D01F601619171916F0143
:10410000198308835D834C835B834A837F836E833B
:104110009B012F5F3F4F249FC001259F900D349F2F
:10412000900D1124998788870115110511F0C80198
:1041300092DF88859985080F191F2A96F3E2EF16FA
:10414000F1E0FF06A9F6E0E6F4E087EDDF011D925D
:104150008A95E9F710925F0410925E041092C005F0
:104160001092BF051092C4051092C3051092C205AB
:104170001092C1051092C6051092C5051092C8058F
:104180001092C7051092CA051092C9051092CE056B
:104190001092CD051092CC051092CB051092D0054F
:1041A0001092CF051092D2051092D10510929E0563
:1041B00010929D051092A00510929F0590E080E05E
:1041C000DF91CF911F910F91FF90EF90DF90CF90F3
:1041D00008950097F1F0F894A3E2B1E0E1EAF5E088
:1041E00030E020E04D915D9148175907A8F04281D9
:1041F00053814115510581F08AE0829FF001839F30
:10420000F00D1124EF55FA4F80819181009759F4F8
:10421000789490E080E008952F5F3F4F3A962330E6
:10422000310501F7F5CFDC0111966D917C91718319
:1042300060834150510953834283FC012193CF0194
:1042400078940895009749F1DC018E91853041F40E
:10425000E0919F05F091A0053097F9F0CD01099408
:104260008530D8F4282F30E0F8948FEF8C938AE0D3
:10427000829FF001839FF00D1124EF55FA4F80814A
:10428000918112969C938E931197B183A083828122
:10429000938101969383828378940895CF92DF92DD
:1042A000EF92FF920F931F93CF93DF939C0183E6CE
:1042B00094E08C7F4115510509F49BC0211531050F
:1042C00009F497C06115710509F493C07A01AB0137
:1042D000B9016D5F7F4F6C7F9B012F5F3F4F249F24
:1042E0008001259F100D349F100D1124F89420910A
:1042F000BF053091C005232B59F42091C70530919B
:10430000C8052115310569F12017310708F058C09B
:104310002091C9053091CA05232B91F42091C7053E
:104320003091C805820F931F2091D1053091D2059D
:104330002115310509F441C02017310708F056C096
:104340007894CFEFDFEF86EF9FEFF701D183C08343
:10435000DF91CF911F910F91FF90EF90DF90CF9061
:104360000895C3E0D0E0C0905E04D0905F0424EDD7
:1043700030E02C193D092017310710F32AE02C9F5B
:10438000F0012D9FF00D1124EF55FA4F918380839A
:1043900055834483538342837783668311870087E1
:1043A000009709F058DE0C0D1D1D10935F0400935B
:1043B0005E04789490E080E0C8CFC4E0D0E0D3CF32
:1043C000C3E0D0E02AE02C9FF0012D9FF00D1124D6
:1043D000EF55FA4F918380835583448353834283FF
:1043E00077836683009729F336DEE3CFC4E0D0E01D
:1043F000E9CF8FEF9FEFACCF9C010397029708F0B6
:1044000069C0F89484E09AE0482F50E024173507FB
:104410000CF44DC091E08AE0829FF001839FF00D83
:104420001124EF55FA4F11821082158214821382E3
:104430001282178216829923B1F18091BF05909163
:10444000C005892BA9F42091C7053091C805211515
:10445000310571F080915E0490915F04821B930B93
:1044600090935F0480935E041092C8051092C70574
:104470008091C9059091CA05892BA9F42091D10595
:104480003091D2052115310571F080915E04909133
:104490005F04821B930B90935F0480935E041092E1
:1044A000D2051092D105789490E080E00895949F11
:1044B000F001959FF00D1124EF55FA4F4081518185
:1044C000452B31F440855185452B11F481509CCF0B
:1044D00090E0A1CF8FEF9FEF08954115510549F16D
:1044E000009739F16115710521F1F89420919D052E
:1044F00030919E05232BB9F420919F053091A005A2
:10450000232B89F490939E0580939D057093A005BD
:1045100060939F05789425E030E090E080E0FA0118
:1045200031832083089578942FEF3FEF86EF9FEF3C
:10453000F6CF8FEF9FEF0895059769F4F8941092E6
:104540009E0510929D051092A00510929F057894EB
:1045500090E080E008958FEF9FEF08956115710559
:1045600019F4F0E0E0E011C08530910581F4E091AC
:104570009D05F0919E053097A1F3CB010196099519
:10458000009779F3FC0185E08193CF0108959C01A8
:10459000235031092230310520F72AE0289FD0012D
:1045A000299FB00D1124AF55BA4F2D913C91119711
:1045B000232BB9F216962D913C91179726173707A2
:1045C00080F2F89412962D913C91139721153105A4
:1045D00029F0ED91FC911197309711F47894C1CFA7
:1045E0004181528111965C934E932150310913966B
:1045F0003C932E93129781937894C7CFE7E3F5E02D
:1046000086E6DF011D928A95E9F7E0E6F4E087EDA2
:10461000DF011D928A95E9F710925F0410925E0403
:10462000E1EAF5E082E3DF011D928A95E9F7EDE921
:10463000F5E084E0DF011D928A95E9F790E080E0E3
:104640000895CF93DF93C0912901D0912A01CF3FE4
:10465000DC0759F4F1D390932A018093290197FF45
:1046600009C0D0932A01C093290184EF9FEFDF9105
:10467000CF91089590E080E0FACF8230910528F440
:104680008093D30590E080E008958FEF9FEF089529
:104690004F925F926F927F92AF92BF92CF92DF92D2
:1046A000EF92FF920F931F93CF93DF9300D0CDB77C
:1046B000DEB71A821982009709F479C06115710575
:1046C00009F475C02091290130912A0107EF1FEFED
:1046D0002F3F3F4F09F445C06B015C01412C512C29
:1046E0003201F12CE12C10E000E09E012F5F3F4FE2
:1046F000A6014E195F09B5016E0D7F1D809129013C
:1047000090912A010DD4892B09F04BC089819A819F
:10471000009741F4E114F10429F42091D3052223F8
:1047200009F442C0E80EF91EEC14FD04D0F480E850
:10473000481684E858068EE16806710420F560E0AA
:1047400070E0CB010E941C442AE0420E511C611C07
:10475000711C0A3F4FEF140721F0043F8FEF180739
:10476000A1F4C8010F900F90DF91CF911F910F918D
:10477000FF90EF90DF90CF90BF90AF907F906F90C1
:104780005F904F90089501EF1FEF81E090E0013FAF
:104790002FEF120711F090E080E0892B09F4A5CFEC
:1047A000E0CF04EF1FEFDDCF0AEF1FEFDACF0FEFFF
:1047B0001FEFD7CF4F925F926F927F92AF92BF92CF
:1047C000CF92DF92EF92FF920F931F93CF93DF93DD
:1047D00000D0CDB7DEB71A821982009709F479C0EC
:1047E0006115710509F475C02091290130912A01E4
:1047F00007EF1FEF2F3F3F4F09F445C06B015C01EE
:10480000412C512C3201F12CE12C10E000E09E01F2
:104810002F5F3F4FA6014E195F09B5016E0D7F1D39
:104820008091290190912A01A7D3892B09F04BC0CF
:1048300089819A81009741F4E114F10429F42091CF
:10484000D305222309F442C0E80EF91EEC14FD043E
:10485000D0F480E4481682E458068FE068067104BC
:1048600020F560E070E0CB010E941C442AE0420E7B
:10487000511C611C711C0E3F4FEF140721F0043FC7
:104880008FEF1807A1F4C8010F900F90DF91CF911F
:104890001F910F91FF90EF90DF90CF90BF90AF905E
:1048A0007F906F905F904F90089502EF1FEF81E02F
:1048B00090E0023F2FEF120711F090E080E0892B8B
:1048C00009F4A5CFE0CF04EF1FEFDDCF0EEF1FEF10
:1048D000DACF0FEF1FEFD7CF8091290190912A01F6
:1048E0008F3F980749F02ED3892B49F48FEF9FEF24
:1048F00090932A018093290190E080E0089584EF4D
:104900009FEF0895CF92DF92EF92FF920F931F9344
:10491000CF93DF9321E04115510509F020E041508C
:10492000510921112CC0DC01FB01D12CC12C21E04B
:1049300022C03FEFC31AD30A7D010D911D91E701FB
:10494000EA80FB80E016F106A8F420813181E28044
:10495000F380F182E08233832283ED90FC90119703
:104960009D0122503109E901F982E88211961C93D8
:104970000E9320E03296C416D506D8F2D2CFDF913E
:10498000CF911F910F91FF90EF90DF90CF900895FE
:104990002091D405211113C054DE009791F4109298
:1049A000DA051092D9051092D8051092D705109209
:1049B000D6051092D50521E02093D405089584EF03
:1049C0009FEF08950F931F93CF93DF930097C9F143
:1049D00044305105B0F12091D405C7EFDFEF222319
:1049E00051F1FC01E60FF71F2081318121153105BE
:1049F00059F12C5F3F4F4217530730F1BA018C0138
:104A00008091D9059091DA0593838283CF0140DEAE
:104A1000EC01892B61F4C80115DC8091D9059091D6
:104A2000DA0501969093DA058093D90504C0CA3F50
:104A30008FEFD80791F7CE01DF91CF911F910F91A2
:104A40000895CFEFDFEFF7CFC9EFDFEFF4CF4F924D
:104A50005F926F927F928F929F92AF92BF92CF920E
:104A6000DF92EF92FF920F931F93CF93DF9300D0CB
:104A700000D01F92CDB7DEB7009709F47FC0411573
:104A8000510509F47BC02091D40507EF1FEF2223C5
:104A900009F45DC02A017B013C0165E070E0CE01B4
:104AA000019688DE8C01892B09F051C0A980BA805B
:104AB000A114B10409F43FC0450184E0880E911CA3
:104AC000B701680D791D8D81803CC0F180912B016B
:104AD00090912C0197FD32C041DD6C01009709F4E3
:104AE00050C0A70170E060E00E94ED49EC0CFD1C95
:104AF00085E0FE013196D70101900D928A95E1F78C
:104B0000E2E0AE16B104E8F081E090E0B6DDB50178
:104B100061507109C70105964DDE7C0190E080E08F
:104B2000ACDDEF2871F0F30111821082F2011182E5
:104B30001082C60187DB09EF1FEF09C0CB0149DBFB
:104B4000CCCFF301D182C082F20191828082C80170
:104B50000F900F900F900F900F90DF91CF911F91BA
:104B60000F91FF90EF90DF90CF90BF90AF909F900C
:104B70008F907F906F905F904F9008950FEF1FEF91
:104B8000E6CF06EF1FEFE3CF0097A1F041155105E7
:104B900089F02115310571F0F90134966E177F0700
:104BA00048F0DC012D933C93DA01ED93FC9390E007
:104BB00080E008958FEF9FEF0895009709F443C0B8
:104BC0004115510509F43FC065307105E0F12091B0
:104BD000D4052223D9F1DC01ED91FC9111971296B5
:104BE0002D913C91CF0104968617970791F58091FE
:104BF000D5059091D605009771F43093D805209390
:104C0000D70521E030E03093D6052093D505DA01B1
:104C1000ED93FC9308958091D7059091D805019666
:104C20002817390750F08217930750F48BEF9FEF46
:104C30003093D8052093D705EACF8CEF9FEFF8CFBC
:104C400090E080E0F5CF8FEF9FEF089587EF9FEF23
:104C5000089589EF9FEF089584E090E0089590E033
:104C600080E008958CEF9FEF089580E290E0089532
:104C70001092DA051092D9051092D8051092D70536
:104C80001092D6051092D50590E080E0089590939B
:104C90002C0180932B0108958091D405882391F0F5
:104CA0001BDE009789F41092DA051092D905109254
:104CB000D8051092D7051092D6051092D5051092FE
:104CC000D405089590E080E00895009749F06115BB
:104CD000710531F0FC0111821082FB0111821082FA
:104CE0000895F3CF26E030E040E855E260E070E060
:104CF00090E080E000C01092DC051092DB05893066
:104D00009105F0F48957994DFC010C9413499026B4
:104D10009A26A126A426A726AA26AD26B026B62620
:104D200081E090E09093DC058093DB058EEE96E0C9
:104D30000C941C4682E090E09093DC058093DB05A8
:104D4000089584E090E0F8CF88E090E0F5CF80E12E
:104D500090E0F2CF80E290E0EFCF80E490E0ECCF03
:104D600080E890E09093DC058093DB058091DB0583
:104D70009091DC059160E0CF0F9300E020E040E0EF
:104D800060E08DED95E00E9449470F9108951F92D4
:104D90000F920FB60F9211242F933F934F935F936F
:104DA0006F937F938F939F93AF93BF93EF93FF93F3
:104DB00086E08093B2008091E3058F5F8093E305E6
:104DC000853019F41092E30527D1FF91EF91BF913F
:104DD000AF919F918F917F916F915F914F913F9193
:104DE0002F910F900FBE0F901F90189586E0809323
:104DF000B200A0E7B0E08C918E7F8C93E0EBF0E006
:104E000080818C7F8083E1EBF0E08081877F8083ED
:104E100080818660808380818E7F80838C91816099
:104E20008C930895E0E7F0E0808190819E7F9083ED
:104E30008170089581E00895EF92FF920F931F9380
:104E4000CF93DF93CDB7DEB762970FB6F894DEBF8E
:104E50000FBECDBF0E945D4426E030E040E855E241
:104E600060E070E090E080E046DF04E120E048EAA6
:104E700060ECCE010D960E94494786E0E0E3F1E048
:104E8000DE01179601900D928A95E1F700EA1FE086
:104E900020E030E040E65AEE60E070E0CE01079698
:104EA000AFD36BED71E0019721F568EC71E08EEE08
:104EB00096E00E94B0477E0183E0E80EF11C10E00E
:104EC000CE01019659D4F70161917F014AE050E08B
:104ED0008EEE96E00E942C48133031F069ED71E0BF
:104EE0008EEE96E00E94B0471F5F143049F76FEFD7
:104EF00071E08EEE96E00E94C14784EE95E00E943C
:104F0000B03390E080E062960FB6F894DEBF0FBE3B
:104F1000CDBFDF91CF911F910F91FF90EF9008953A
:104F2000CF93DF93E90119821882F89484EE95E01B
:104F30000E94773499838883789490E080E0DF91B1
:104F4000CF91089590E080E008950F9300E020E075
:104F500040E060E08AEE95E00E944947E4EEF5E02B
:104F6000138212828DE392E0918380838DE395E436
:104F7000958384830F910895AF92BF92CF92DF9271
:104F8000EF92FF920F931F93CF93DF93CDB7DEB7CE
:104F90002F970FB6F894DEBF0FBECDBF5B016A013D
:104FA0008901F90111821082F89464EE75E0CE0156
:104FB00001960E94F93378948D858430D0F4750180
:104FC000F801808191818C159D0598F4F894CE01AB
:104FD00001960E94E13178948F3F980789F3F70199
:104FE00081937F01F8018081918101969183808373
:104FF000E7CF90E080E02F960FB6F894DEBF0FBEAB
:10500000CDBFDF91CF911F910F91FF90EF90DF9077
:10501000CF90BF90AF9008958091F00591E0980FE8
:105020009093F005882349F021E030E03093F205B9
:105030002093F1058093F005089578940E946D0304
:10504000F8948091F0058150F5CFCF93DF931092C3
:10505000CB071092CA070E945D4444DEC091420112
:10506000D09143011982188268EE73E080E090E0ED
:105070000E94E40270E060E090E080E00E94630142
:10508000009709F03FC00E947907F89478948A81CC
:105090009B81BC01685F7F4F0E946601892B71F480
:1050A0006FEF7FEFCB010E94F7010E94DE028823A1
:1050B00029F081E0FE01EC5EFE4F8083F89496DEDD
:1050C0000E94E102882311F080E00BC00E94DE0202
:1050D0008111FACF81E0FE01EC5EFE4F90819111CB
:1050E000F3CF8093CA0778947894CC5EDE4F80919A
:1050F000CA0781110AC00E94B1080E94C302F89435
:1051000090E080E0DF91CF9108950E94C1020E945B
:10511000E102882381F081E08093CB079091CB0757
:1051200081E0911180E08093CA078091CB078111C3
:1051300079DE80DEDCCF0E94DE028111ECCF81E0DF
:1051400098819111E9CF80E0E7CF5058BB27AA277B
:105150000ED057C148D130F04DD120F031F49F3FEF
:1051600011F41EF43DC10EF4E095E7FB0AC1E92FEE
:1051700059D180F3BA17620773078407950718F0AF
:1051800071F49EF588C10EF4E0950B2EBA2FA02D78
:105190000B01B90190010C01CA01A0011124FF27E4
:1051A000591B99F0593F50F4503E68F11A16F040DF
:1051B000A22F232F342F4427585FF3CF46953795DE
:1051C0002795A795F0405395C9F77EF41F16BA0BA3
:1051D000620B730B840BBAF09150A1F0FF0FBB1F51
:1051E000661F771F881FC2F70EC0BA0F621F731F9A
:1051F000841F48F4879577956795B795F7959E3FF7
:1052000008F0B3CF9395880F08F09927EE0F979584
:105210008795089529D180F09F3740F491110EF4BD
:105220003BC160E070E080E89FE3089526F01B1624
:10523000611D711D811DABC0C5C07FD008F481E028
:105240000895F8D088F09F5790F0B92F9927B7515B
:10525000A0F0D1F0660F771F881F991F1AF0BA953A
:10526000C9F712C0B13081F016D1B1E0089513C171
:10527000672F782F8827B85F39F0B93FCCF3869530
:1052800077956795B395D9F73EF49095809570958D
:1052900061957F4F8F4F9F4F0895E89409C097FB0A
:1052A0003EF490958095709561957F4F8F4F9F4FFD
:1052B0009923A9F0F92F96E9BB279395F695879541
:1052C00077956795B795F111F8CFFAF4BB0F11F404
:1052D00060FF1BC06F5F7F4F8F4F9F4F16C08823AB
:1052E00011F096E911C0772321F09EE8872F762FE1
:1052F00005C0662371F096E8862F70E060E02AF022
:105300009A95660F771F881FDAF7880F969587950D
:1053100097F90895A9D080F09F3740F491110EF0CD
:10532000BBC060E070E080E89FEB089526F41B1698
:10533000611D711D811D2BC045C0990F0008550FBF
:10534000AA0BE0E8FEEF16161706E807F907C0F00B
:1053500012161306E407F50798F0621B730B840B13
:10536000950B39F40A2661F0232B242B252B21F4ED
:1053700008950A2609F4A140A6958FEF811D811D8D
:10538000089597F99F6780E870E060E008958823AA
:1053900071F4772321F09850872B762F07C066236E
:1053A00011F499270DC09051862B70E060E02AF02F
:1053B0009A95660F771F881FDAF7880F969587955D
:1053C00097F908959F3F31F0915020F48795779594
:1053D0006795B795880F911D9695879597F90895CC
:1053E0009FEF80EC089500240A94161617061806FD
:1053F0000906089500240A941216130614060506D9
:105400000895092E0394000C11F4882352F0BB0F69
:1054100040F4BF2B11F460FF04C06F5F7F4F8F4FCC
:105420009F4F089557FD9058440F551F59F05F3F07
:1054300071F04795880F97FB991F61F09F3F79F0B6
:1054400087950895121613061406551FF2CF469538
:10545000F1DF08C0161617061806991FF1CF8695BA
:105460007105610508940895E5DFA0F0BEE7B9175E
:1054700088F4BB279F3860F41616B11D672F782F6C
:105480008827985FF7CF869577956795B11D939597
:105490009639C8F30895E894BB2766277727CB0190
:1054A00097F908954ADF08F48FEF08950BD0A9CF3C
:1054B0009ADF28F09FDF18F0952309F062CF90CF94
:1054C0001124EACFAFDFA0F3959FD1F3950F50E001
:1054D000551F629FF001729FBB27F00DB11D639FA6
:1054E000AA27F00DB11DAA1F649F6627B00DA11D4C
:1054F000661F829F2227B00DA11D621F739FB00DF2
:10550000A11D621F839FA00D611D221F749F332761
:10551000A00D611D231F849F600D211D822F762FFA
:105520006A2F11249F5750408AF0E1F088234AF0F7
:10553000EE0FFF1FBB1F661F771F881F9150504043
:10554000A9F79E3F510570F01CCFA6CF5F3FECF34B
:10555000983EDCF3869577956795B795F795E7952F
:105560009F5FC1F7FE2B880F911D9695879597F940
:1055700008952091BD06222381F03FB7F894209131
:10558000BD06213069F42DB32093BB064DB32091A5
:10559000BC06209524232DBB3FBF8CBD9DBD089527
:1055A0003093BB06FACF8091BD06882361F09FB788
:1055B000F8942091BD068091BB06213019F48DBB73
:1055C0009FBF08958FBF089544E050E0BC0181E083
:1055D00090E00C94073744E050E0BC0185E090E097
:1055E0000C94073746E050E0BC0189E090E00C9451
:1055F000073744E050E0BC018FE090E00C9407379F
:105600004F925F926F927F928F929F92AF92BF92D2
:10561000CF92DF92EF92FF920F931F93CF93DF937E
:1056200000D000D000D0CDB7DEB76C014A015B01DD
:10563000280139018091F305811120C010924106A3
:105640001092400688EE93E0A0E0B0E0809342061E
:1056500090934306A0934406B09345068DE492E0F0
:1056600090933F0680933E068CE496E00E943F476D
:1056700084E08093560681E08093F3058BEF95E0FC
:1056800090935A06809359060E94CD3810E000E0AE
:10569000882309F459C080E591E06BDFC601A2DFE1
:1056A00000E020E040E060E0CE0101960E94494722
:1056B000CE0103969EDF77DF83017201A50194017D
:1056C000B6018091590690915A0607D58C01019731
:1056D00009F03AC080E591E04CDF60915906709185
:1056E0005A06CE01019673D0CE01039682DF6091F7
:1056F000590670915A06CE0101967FD0CE010396CD
:1057000063DF6091590670915A06CE0101966AD006
:10571000CE01039660DF47DF6091590670915A060B
:10572000CE01019675D08B819C81AD81BE81809325
:105730005D0690935E06A0935F06B09360060E949C
:10574000F743CB010E94AA3AC80126960FB6F894F7
:10575000DEBF0FBECDBFDF91CF911F910F91FF90A4
:10576000EF90DF90CF90BF90AF909F908F907F9001
:105770006F905F904F900895CF93DF93EC010E945C
:105780003F4780E591E0F5DEBE016E5F7F4F44E06C
:1057900050E08FE090E00E94CB3705DFCE01DF9133
:1057A000CF9108950F9300E020E040E060E081E6B3
:1057B00096E00E9449478BE596E00F910C943F4795
:1057C0000E9624E1FC0111922A95E9F70895CF93F2
:1057D000DF93EC01625F7F4F0E945F47CE01DF9154
:1057E000CF910895CF93DF93EC016E5E7F4F0E94BF
:1057F0005F47CE01DF91CF910895CF93DF93EC0106
:105800006A5E7F4F0E945F47CE01DF91CF9108957E
:10581000CF93DF93EC01625E7F4F0E945F47CE0122
:10582000DF91CF91089580E3FB0180833296842F2E
:1058300082958F704F704A3030F4405D4293482F0C
:105840008111F5CF0895495CF9CF0F9300E020E076
:1058500040E060E087E696E00E9449470F91089596
:105860007F928F929F92AF92BF92CF92DF92EF92F0
:10587000FF920F931F93CF93DF93CDB7DEB7AC9713
:105880000FB6F894DEBF0FBECDBF7C01762E942EEE
:10589000852E20E2A22ECE0101966C01DC01EA2DBC
:1058A0001D92EA95E9F70FEF2FEF4FEF6FEF869616
:1058B0000E94494787010D5B1F4F89E892E09AA338
:1058C00089A389A59AA5ABA5BCA58BA39CA3ADA3D1
:1058D000BEA343E450E0BE016F5D7F4FC8010E944C
:1058E000B135019609F4C2C081E089838A8386E0DC
:1058F000B82EBB821C82D70114966D917D918D913B
:105900009C9117970E9419496D837E838F83988796
:1059100089869A8680E890E09C878B874CE150E0EE
:10592000B601C8010E94C135FE0137968AE1DF0148
:105930001D928A95E9F74701B8E08B0E911CF4019E
:10594000D60101900D92BA94E1F740E150E0B60122
:10595000C8010E94C135F6011192AA94E9F796E0B8
:10596000A92EB12C40E250E0B601C8010E94C13519
:10597000F1E0AF1AB108B1F783E6898392E89A8320
:1059800093E59B838C8385E38D8381E08E837F8287
:105990009DE3988797E099878A8786E0F401DE0186
:1059A0001B9601900D928A95E1F78CE0898B8A8B8A
:1059B00064E072E0CE0143960E94F449D7011B9641
:1059C0004C91BE01675E7F4FC7012DDFF701448513
:1059D000BE01655E7F4FC70126DFD7011D964C9142
:1059E000BE01635E7F4FC7011EDF4EE150E0B6018E
:1059F000C8010E94C135B3E07B121EC082E38983D7
:105A000084E08A83F70196859B8397859C839089A0
:105A10009D8391899E8396E39F838887828D898762
:105A2000838D8A87848D8B87858D8C874CE050E0B1
:105A3000B601C8010E94C13587E3898386E08A8365
:105A400091E09B8393E09C838D838FE08E838AE338
:105A50008F838BE388878FEF898749E050E0B60119
:105A6000C8010E94C135C8010E94BB35AC960FB673
:105A7000F894DEBF0FBECDBFDF91CF911F910F9184
:105A8000FF90EF90DF90CF90BF90AF909F908F905E
:105A90007F9008953F924F925F926F927F928F9284
:105AA0009F92AF92BF92CF92DF92EF92FF920F93AD
:105AB0001F93CF93DF93CDB7DEB7C054D1090FB694
:105AC000F894DEBF0FBECDBF7C012A013B01690106
:105AD0000E94EB434B015C0187010D5B1F4FC80126
